{
  "contractName": "StudentRecords",
  "abi": [
    {
      "inputs": [],
      "name": "minimumFee",
      "outputs": [
        {
          "internalType": "uint256",
          "name": "",
          "type": "uint256"
        }
      ],
      "stateMutability": "view",
      "type": "function",
      "constant": true
    },
    {
      "inputs": [],
      "name": "student",
      "outputs": [
        {
          "internalType": "string",
          "name": "id",
          "type": "string"
        },
        {
          "internalType": "string",
          "name": "name",
          "type": "string"
        },
        {
          "internalType": "string",
          "name": "department",
          "type": "string"
        },
        {
          "internalType": "string",
          "name": "year",
          "type": "string"
        }
      ],
      "stateMutability": "view",
      "type": "function",
      "constant": true
    },
    {
      "inputs": [
        {
          "internalType": "string",
          "name": "_id",
          "type": "string"
        },
        {
          "internalType": "string",
          "name": "_name",
          "type": "string"
        },
        {
          "internalType": "string",
          "name": "_dept",
          "type": "string"
        },
        {
          "internalType": "string",
          "name": "_year",
          "type": "string"
        }
      ],
      "name": "setStudent",
      "outputs": [],
      "stateMutability": "payable",
      "type": "function",
      "payable": true
    },
    {
      "inputs": [],
      "name": "getStudent",
      "outputs": [
        {
          "internalType": "string",
          "name": "",
          "type": "string"
        },
        {
          "internalType": "string",
          "name": "",
          "type": "string"
        },
        {
          "internalType": "string",
          "name": "",
          "type": "string"
        },
        {
          "internalType": "string",
          "name": "",
          "type": "string"
        }
      ],
      "stateMutability": "view",
      "type": "function",
      "constant": true
    }
  ],
  "bytecode": "0x608060405266038d7ea4c6800060045534801561001b57600080fd5b50610af88061002b6000396000f3fe60806040526004361061003f5760003560e01c80631a7626e714610044578063699450e81461006f578063861869981461009d578063b439548d146100b9575b600080fd5b34801561005057600080fd5b506100596100e7565b604051610066919061093d565b60405180910390f35b34801561007b57600080fd5b506100846100ed565b60405161009494939291906108bc565b60405180910390f35b6100b760048036038101906100b29190610771565b61032b565b005b3480156100c557600080fd5b506100ce61040f565b6040516100de94939291906108bc565b60405180910390f35b60045481565b60008060000180546100fe90610a21565b80601f016020809104026020016040519081016040528092919081815260200182805461012a90610a21565b80156101775780601f1061014c57610100808354040283529160200191610177565b820191906000526020600020905b81548152906001019060200180831161015a57829003601f168201915b50505050509080600101805461018c90610a21565b80601f01602080910402602001604051908101604052809291908181526020018280546101b890610a21565b80156102055780601f106101da57610100808354040283529160200191610205565b820191906000526020600020905b8154815290600101906020018083116101e857829003601f168201915b50505050509080600201805461021a90610a21565b80601f016020809104026020016040519081016040528092919081815260200182805461024690610a21565b80156102935780601f1061026857610100808354040283529160200191610293565b820191906000526020600020905b81548152906001019060200180831161027657829003601f168201915b5050505050908060030180546102a890610a21565b80601f01602080910402602001604051908101604052809291908181526020018280546102d490610a21565b80156103215780601f106102f657610100808354040283529160200191610321565b820191906000526020600020905b81548152906001019060200180831161030457829003601f168201915b5050505050905084565b600454341015610370576040517f08c379a00000000000000000000000000000000000000000000000000000000081526004016103679061091d565b60405180910390fd5b6040518060800160405280858152602001848152602001838152602001828152506000808201518160000190805190602001906103ae929190610666565b5060208201518160010190805190602001906103cb929190610666565b5060408201518160020190805190602001906103e8929190610666565b506060820151816003019080519060200190610405929190610666565b5090505050505050565b6060806060806000800160006001016000600201600060030183805461043490610a21565b80601f016020809104026020016040519081016040528092919081815260200182805461046090610a21565b80156104ad5780601f10610482576101008083540402835291602001916104ad565b820191906000526020600020905b81548152906001019060200180831161049057829003601f168201915b505050505093508280546104c090610a21565b80601f01602080910402602001604051908101604052809291908181526020018280546104ec90610a21565b80156105395780601f1061050e57610100808354040283529160200191610539565b820191906000526020600020905b81548152906001019060200180831161051c57829003601f168201915b5050505050925081805461054c90610a21565b80601f016020809104026020016040519081016040528092919081815260200182805461057890610a21565b80156105c55780601f1061059a576101008083540402835291602001916105c5565b820191906000526020600020905b8154815290600101906020018083116105a857829003601f168201915b505050505091508080546105d890610a21565b80601f016020809104026020016040519081016040528092919081815260200182805461060490610a21565b80156106515780601f1061062657610100808354040283529160200191610651565b820191906000526020600020905b81548152906001019060200180831161063457829003601f168201915b50505050509050935093509350935090919293565b82805461067290610a21565b90600052602060002090601f01602090048101928261069457600085556106db565b82601f106106ad57805160ff19168380011785556106db565b828001600101855582156106db579182015b828111156106da5782518255916020019190600101906106bf565b5b5090506106e891906106ec565b5090565b5b808211156107055760008160009055506001016106ed565b5090565b600061071c61071784610989565b610958565b90508281526020810184848401111561073457600080fd5b61073f8482856109df565b509392505050565b600082601f83011261075857600080fd5b8135610768848260208601610709565b91505092915050565b6000806000806080858703121561078757600080fd5b600085013567ffffffffffffffff8111156107a157600080fd5b6107ad87828801610747565b945050602085013567ffffffffffffffff8111156107ca57600080fd5b6107d687828801610747565b935050604085013567ffffffffffffffff8111156107f357600080fd5b6107ff87828801610747565b925050606085013567ffffffffffffffff81111561081c57600080fd5b61082887828801610747565b91505092959194509250565b600061083f826109b9565b61084981856109c4565b93506108598185602086016109ee565b61086281610ab1565b840191505092915050565b600061087a6019836109c4565b91507f4d696e696d756d20302e303120455448207265717569726564000000000000006000830152602082019050919050565b6108b6816109d5565b82525050565b600060808201905081810360008301526108d68187610834565b905081810360208301526108ea8186610834565b905081810360408301526108fe8185610834565b905081810360608301526109128184610834565b905095945050505050565b600060208201905081810360008301526109368161086d565b9050919050565b600060208201905061095260008301846108ad565b92915050565b6000604051905081810181811067ffffffffffffffff8211171561097f5761097e610a82565b5b8060405250919050565b600067ffffffffffffffff8211156109a4576109a3610a82565b5b601f19601f8301169050602081019050919050565b600081519050919050565b600082825260208201905092915050565b6000819050919050565b82818337600083830152505050565b60005b83811015610a0c5780820151818401526020810190506109f1565b83811115610a1b576000848401525b50505050565b60006002820490506001821680610a3957607f821691505b60208210811415610a4d57610a4c610a53565b5b50919050565b7f4e487b7100000000000000000000000000000000000000000000000000000000600052602260045260246000fd5b7f4e487b7100000000000000000000000000000000000000000000000000000000600052604160045260246000fd5b6000601f19601f830116905091905056fea26469706673582212207ba35064c5f2d7959cba50d6df6c4955f23a60431b05fa9f7f902f3953393c0f64736f6c63430008000033",
  "immutableReferences": {},
  "source": "// SPDX-License-Identifier: MIT\npragma solidity ^0.8.0;\n\ncontract StudentRecords {\n\n    struct Student {\n        string id;\n        string name;\n        string department;\n        string year;\n    }\n\n    Student public student;\n\nuint public minimumFee = 0.001 ether;\n\n    function setStudent(\n        string memory _id,\n        string memory _name,\n        string memory _dept,\n        string memory _year\n    ) public payable {\n\n        require(msg.value >= minimumFee, \"Minimum 0.01 ETH required\");\n\n        student = Student(_id, _name, _dept, _year);\n    }\n\n\n    function getStudent()\n        public\n        view\n        returns (\n            string memory,\n            string memory,\n            string memory,\n            string memory\n        )\n    {\n        return (\n            student.id,\n            student.name,\n            student.department,\n            student.year\n        );\n    }\n}\n",
  "sourcePath": "C:\\Users\\Admin\\dapp-pro\\contracts\\StudentRecords.sol",
  "compiler": {
    "name": "solc",
    "version": "0.8.0+commit.c7dfd78e.Emscripten.clang"
  },
  "schemaVersion": "3.4.16",
  "updatedAt": "2026-02-18T09:46:13.933Z",
  "networkType": "ethereum",
  "devdoc": {
    "kind": "dev",
    "methods": {},
    "version": 1
  },
  "userdoc": {
    "kind": "user",
    "methods": {},
    "version": 1
  }
}